:020000040000FA
:100000000C9463000C948B000C948B000C948B006C
:100010000C948B000C948B000C948B000C948B0034
:100020000C948B000C948B000C948B000C94160792
:100030000C948B000C948B000C948B000C948B0014
:100040000C9474060C948B000C94E4060C94BE067D
:100050000C948B000C948B000C948B000C948B00F4
:100060000C948B000C948B000000000023002600F1
:10007000290000000008000201000003040700003E
:1000800000000000000000000000250028002B00F8
:1000900000000000240027002A00040404040404D3
:1000A0000404020202020202030303030303010227
:1000B00004081020408001020408102001020408F6
:1000C0001020D207080D11241FBECFEFD8E0DEBFED
:1000D000CDBF12E0A0E0B1E0E2E3F1E202C00590A2
:1000E0000D92AC34B107D9F723E0ACE4B2E001C023
:1000F0001D92A334B207E1F710E0C2E6D0E004C0DD
:100100002197FE010E945D0EC136D107C9F70E94FA
:100110007D080C948C100C94000090E0FC01E255DA
:10012000FF4F249186569F4FFC018491882399F0BC
:1001300090E0880F991FFC01E057FF4FA591B49103
:10014000FC01EA57FF4F859194918FB7F894EC9199
:10015000E22BEC938FBF0895CF92DF92EF92FF9244
:10016000DC01A03282E0B807D4F5A53BB10514F05C
:10017000A4EBB0E04091370328E830E0241B3109BC
:1001800047FD3395220F331F220F331F6901330FB1
:10019000EE08FF084091380328E532E0241B3109BE
:1001A00047FD3395220F331F220F331F032E000C00
:1001B000440B550B2C193D094E095F09B7FF02C0CE
:1001C000B0E0A0E00E94CD0D24EB30E040E050E034
:1001D0000E94A30DC20ED31EE41EF51ED601E091AF
:1001E0003603EC3080F52091370388E890E0821BDD
:1001F000910927FD9395880F991F880F991FA817BC
:10020000B90784F02091380388E592E0821B9109B8
:1002100027FD9395880F991F880F991FA817B90775
:100220000CF4CD010297880F991F4FB7F8942E2F29
:1002300030E0F901EE0FFF1FE20FF31FE950FD4F11
:10024000928381834FBFFF90EF90DF90CF9008950E
:10025000833081F028F4813099F08230A9F008953C
:100260008730A9F08830C9F08430B1F480918000E3
:100270008F7D03C0809180008F77809380000895E8
:1002800084B58F7784BD089584B58F7DFBCF809131
:10029000B0008F778093B00008958091B0008F7D7B
:1002A000F9CFCF93DF93282F30E0F901EE58FF4FBD
:1002B0008491F901E255FF4FD491F901E656FF4FC1
:1002C000C491CC23A1F081110E942801EC2FF0E011
:1002D000EE0FFF1FE859FF4FA591B491EC91ED236C
:1002E00081E090E009F480E0DF91CF91089580E013
:1002F00090E0FACF1F93CF93DF93282F30E0F901DE
:10030000EE58FF4F8491F901E255FF4FD491F90166
:10031000E656FF4FC491CC23A9F0162F81110E94FD
:100320002801EC2FF0E0EE0FFF1FEA57FF4FA591D9
:10033000B4918FB7F894EC91111108C0D095DE23D9
:10034000DC938FBFDF91CF911F910895DE2BF8CF03
:10035000CF93DF93EC0180912403909125030297C2
:1003600049F4C130D10509F43BC06CF560E0209739
:1003700009F437C08091240390912503049749F430
:10038000C130D10509F45CC00CF037C0209709F4E6
:1003900042C08091240390912503059709F0E5C0A0
:1003A000CA30D10508F0E1C0FE01E752FE4F0C94BF
:1003B0005D0E3802440255026B02860288028F02EB
:1003C0009B02AC02B302C230D105A9F060E0C33099
:1003D000D10581F6809128030E947A0160E006C071
:1003E00061E0809128030E947A0161E080912A03F4
:1003F0000E947A01BFCF61E0EDCFC230D10539F163
:10040000C330D10509F0C5CF61E0809128030E9477
:100410007A0160E022C061E0809128030E947A01A5
:1004200060E080912A030E947A0161E080912C03B0
:100430000E947A0160E080912E030E947A01A9CF88
:1004400060E0809128030E947A0161E0EACF60E0D9
:10045000809128030E947A0161E080912A030E9422
:100460007A0160E080912C030E947A0161E0E3CF81
:1004700060E0809128030E947A0161E080912A0364
:100480000E947A0161E00BC060E0809128030E9425
:100490007A0161E080912A030E947A0160E08091F4
:1004A0002C030E947A0160E010C060E08091280374
:1004B0000E947A0161E080912A030E947A0160E043
:1004C00080912C030E947A0161E080912E030E94AA
:1004D0007A0161E015C060E0809128030E947A01F2
:1004E00061E080912A030E947A0160E080912C03F0
:1004F0000E947A0161E080912E030E947A0160E0FF
:1005000080913003DF91CF910C947A0161E0E4CFC8
:1005100061E0809128030E947A0160E0E2CF61E00F
:10052000809128030E947A0160E080912A030E9452
:100530007A0161E0DBCF61E0809128030E947A01BB
:1005400060E080912A030E947A0161E080912C038F
:100550000E947A0160E0CFCF61E0809128030E9481
:100560007A0160E08BCF60E0F8CFDF91CF91089502
:100570008F929F92AF92BF92EF92FF920F931F9331
:10058000CF93DF93EC0197FF04C0CC27DD27C81B76
:10059000D90B181619060CF082C081E090E09093F8
:1005A0001D0380931C0304E010E05AE0E52EF12CBB
:1005B000209709F490C03FB7F8948091520290912F
:1005C0005302A0915402B091550226B5A89B05C0D4
:1005D0002F3F19F00196A11DB11D3FBFBA2FA92FC2
:1005E000982F8827820F911DA11DB11D42E0880F11
:1005F000991FAA1FBB1F4A95D1F740913203509112
:10060000330360913403709135034C015D01841A0A
:10061000950AA60AB70A40911E0350911F036091E4
:1006200020037091210384169506A606B70608F4E8
:10063000BFCF8093320390933303A0933403B093DE
:100640003503809126039091270320911C0330915C
:100650001D032130310559F50196909327038093AE
:10066000260320912203309123038217930721F45C
:1006700010922703109226032197809126039091D0
:1006800027032091240330912503B701253031053C
:1006900009F0B8010E94490E0E94A80189CF892B58
:1006A00009F481CF10921D0310921C037CCF892B7B
:1006B00041F4809122039091230390932703809328
:1006C0002603809126039091270301979093270397
:1006D00080932603D1CFDF91CF911F910F91FF908F
:1006E000EF90BF90AF909F908F9008950895AF9234
:1006F000BF92CF92DF92EF92FF920F931F93CF930F
:10070000DF936C017B018B01040F151FEB015E0170
:10071000AE18BF08C017D10759F06991D601ED9105
:10072000FC910190F081E02DC6010995892B79F7A4
:10073000C501DF91CF911F910F91FF90EF90DF9056
:10074000CF90BF90AF900895FC01538D448D252F1D
:1007500030E0842F90E0821B930B541710F0CF965B
:10076000089501970895FC01918D828D981761F08D
:10077000A28DAE0FBF2FB11D5D968C91928D9F5FA4
:100780009F73928F90E008958FEF9FEF08952FB79A
:10079000F8948091560290915702A0915802B0911E
:1007A00059022FBF8093620290936302A093640268
:1007B000B09365028AE592E00E94B30397FF26C0DA
:1007C0002FB7F8948091560290915702A091580249
:1007D000B09159022FBF4091620250916302609123
:1007E000640270916502841B950BA60BB70B4091B8
:1007F0005E0250915F026091600270916102841705
:100800009507A607B707B0F28FEF9FEF0895FC0199
:10081000918D828D981731F0828DE80FF11D858DB5
:1008200090E008958FEF9FEF0895FC01918D228D48
:10083000892F90E0805C9F4F821B91098F739927CD
:1008400008958AE592E00E94150421E0892B09F4BD
:1008500020E0822F089580E090E0892B29F00E940B
:10086000210481110C9400000895FC01A48DA80FAF
:10087000B92FB11DA35ABF4F2C91848D90E00196E2
:100880008F739927848FA689B7892C93A089B18902
:100890008C91837080648C93938D848D981306C0A3
:1008A0000288F389E02D80818F7D80830895EF9207
:1008B000FF920F931F93CF93DF93EC0181E0888F1A
:1008C0009B8D8C8D98131AC0E889F989808185FFEA
:1008D00015C09FB7F894EE89FF896083E889F9898C
:1008E00080818370806480839FBF81E090E0DF918E
:1008F000CF911F910F91FF90EF900895F62E0B8DE1
:1009000010E00F5F1F4F0F731127E02E8C8D8E119B
:100910000CC00FB607FCFACFE889F989808185FF02
:10092000F5CFCE010E943504F1CFEB8DEC0FFD2FFA
:10093000F11DE35AFF4FF0829FB7F8940B8FEA89BD
:10094000FB8980818062CFCFCF93DF93EC01888DCC
:100950008823B9F0AA89BB89E889F9898C9185FD3A
:1009600003C0808186FD0DC00FB607FCF7CF8C91C8
:1009700085FFF2CF808185FFEDCFCE010E94350447
:10098000E9CFDF91CF91089542E050E069E171E055
:100990008AE592E00C947703CF93DF93FC014481C6
:1009A0005581608171818AE592E00E947703EC01B4
:1009B0000E94C4048C0F9D1FDF91CF910895CF93A7
:1009C000DF93FC0101900020E9F73197AF01481B4C
:1009D000590BBC018AE592E00E947703EC010E946A
:1009E000C4048C0F9D1FDF91CF910895CF93DF93A7
:1009F00020913D0330913E0362177307A0F49B01E1
:100A0000C0913903D0913A03FC0160817181CE011C
:100A1000820F931F0E947210009729F08C1B9D0B70
:100A2000DF91CF9108958FEF9FEFFACFCF93DF93B0
:100A3000EC0188819981009711F00E94130F1982AF
:100A400018821D821C821B821A82DF91CF91089529
:100A5000FC0180819181009711F00C94130F08958F
:100A6000FC0124813581232B39F421E0FB018081B5
:100A7000882349F020E007C0808191810E946210A4
:100A800021E0892BB9F7822F08950F931F93CF93FD
:100A9000DF93EC0188819981009759F02A813B818D
:100AA0002617370730F081E0DF91CF911F910F912A
:100AB00008958B016F5F7F4F0E949C0F009759F044
:100AC000998388831B830A832C813D81232B59F7CB
:100AD000FC011082E8CF80E0E7CFEF92FF920F9306
:100AE0001F93CF93DF936115710541F480E0DF918F
:100AF000CF911F910F91FF90EF90089541155105EF
:100B0000B1F07B01EC010C811D81040F151FB801B0
:100B10000E944505882351F3288139818C819D816C
:100B2000B701820F931F0E946B101D830C8381E01D
:100B3000DECFCF93DF93EC01FB0101900020E9F7BA
:100B40003197AF01461B570B0E946D05811103C001
:100B5000CE010E941605CE01DF91CF910895CF936B
:100B6000DF93EC01FB0144815581608171810E941A
:100B70006D05811103C0CE010E941605CE01DF91E3
:100B8000CF910895EF92FF920F931F93CF93DF932E
:100B9000EC017B018A01BA010E94450581110BC05D
:100BA000CE010E941605CE01DF91CF911F910F91CA
:100BB000FF90EF9008951D830C83B7018881998180
:100BC0000E946B10F0CFFB0101900020E9F73197F4
:100BD000AF01461B570B0C94C2050F931F93CF9385
:100BE000DF93CDB7DEB762970FB6F894DEBF0FBEC6
:100BF000CDBF8C01CB01F8011182108213821282C9
:100C0000158214824AE0BE016F5F7F4F0E94510D32
:100C1000BE016F5F7F4FC8010E94E30562960FB669
:100C2000F894DEBF0FBECDBFDF91CF911F910F9122
:100C30000895FC011182108213821282158214829F
:100C4000FB0101900020E9F73197AF01461B570BDC
:100C50000C94C205CF92DF92EF92FF920F931F93F5
:100C6000CF93DF936C017B018A014617570720F46D
:100C70008F2D7A01062F182F6BE171E0C6010E94BB
:100C80001906C0913D03D0913E03EC16FD06F8F421
:100C90000C171D0708F4E801E0913903F0913A03BD
:100CA000EC0FFD1F108110826091390370913A039F
:100CB0006E0D7F1DC6016115710599F00E94E30557
:100CC0008091390390913A03C80FD91F1883C60148
:100CD000DF91CF911F910F91FF90EF90DF90CF9018
:100CE00008950E941605ECCF1F920F920FB60F9237
:100CF00011242F933F938F939F93AF93BF93809132
:100D0000560290915702A0915802B0915902309129
:100D1000510223E0230F2D3758F50196A11DB11D77
:100D2000209351028093560290935702A093580249
:100D3000B09359028091520290915302A0915402B3
:100D4000B09155020196A11DB11D8093520290935E
:100D50005302A0935402B0935502BF91AF919F915B
:100D60008F913F912F910F900FBE0F901F9018956C
:100D700026E8230F0296A11DB11DD2CF1F920F921C
:100D80000FB60F9211242F933F934F935F936F935E
:100D90007F938F939F93AF93BF93EF93FF938AE5D6
:100DA00092E00E943504FF91EF91BF91AF919F9126
:100DB0008F917F916F915F914F913F912F910F9004
:100DC0000FBE0F901F9018951F920F920FB60F92A3
:100DD00011242F938F939F93EF93FF93E0916A02D7
:100DE000F0916B028081E0917002F091710282FDBE
:100DF0001BC09081809173028F5F8F73209174026A
:100E0000821741F0E0917302F0E0E65AFD4F958FB2
:100E100080937302FF91EF919F918F912F910F908B
:100E20000FBE0F901F9018958081F4CF1F920F92E4
:100E30000FB60F9211242F933F934F935F936F93AD
:100E40007F938F939F93AF93BF93CF93DF93EF9352
:100E5000FF9380914C02C0911B03D0E087FF24C018
:100E6000109285001092840080914C028F5F8093D5
:100E70004C0280914C02082E000C990B8C179D0798
:100E800024F480914C028C30C4F1809184009091C4
:100E90008500049680349C4908F47AC080918400CF
:100EA00090918500049676C080914C02082E000C2B
:100EB000990B8C179D07C4F6E0914C028E2FEE0F14
:100EC000990BFC01EE0FFF1FE80FF91FE950FD4FD2
:100ED000808186FFC9CFE0914C028E2FEE0F990BD7
:100EE000FC01EE0FFF1FE80FF91FE950FD4F808155
:100EF00060E08F730E947A01B7CF20918400309117
:100F00008500E0914C028E2FEE0F990BFC01EE0F45
:100F1000FF1FE80FF91FE950FD4F81819281820F79
:100F2000931F9093890080938800E0914C028E2F4C
:100F3000EE0F990BFC01EE0FFF1FE80FF91FE950B0
:100F4000FD4F808186FF11C0E0914C028E2FEE0F85
:100F5000990BFC01EE0FFF1FE80FF91FE950FD4F41
:100F6000808161E08F730E947A01FF91EF91DF91A0
:100F7000CF91BF91AF919F918F917F916F915F9131
:100F80004F913F912F910F900FBE0F901F9018958A
:100F900080E49CE990938900809388008FEF809390
:100FA0004C02E3CF10925D0210925C0288EE93E057
:100FB000A0E0B0E080935E0290935F02A093600295
:100FC000B09361028BE091E090935B0280935A02B0
:100FD00085EC90E0909367028093660284EC90E049
:100FE000909369028093680280EC90E090936B028A
:100FF00080936A0281EC90E090936D0280936C0282
:1010000082EC90E090936F0280936E0286EC90E009
:101010009093710280937002109273021092740286
:1010200010927502109276026BE171E089E393E011
:101030000E94190680911B038C3008F05AC091E081
:10104000980F90931B038093360390E0FC01EE0F02
:10105000FF1FE80FF91FE950FD4F88EB9BE09283DB
:101060008183109227031092260310921D03109281
:101070001C03109232031092330310923403109227
:10108000350380E098E0909323038093220385E06A
:1010900090E0909329038093280386E090E090935A
:1010A0002B0380932A0387E090E090932D03809395
:1010B0002C0388E090E090932F0380932E0385E02B
:1010C0000E948D0080912A030E948D0080912C0344
:1010D0000E948D0080912E030E948D00109231039A
:1010E0001092300384E090E09093250380932403D2
:1010F00008958FEF80933603B4CFCF93DF93CDB7AE
:10110000DEB7A4970FB6F894DEBF0FBECDBF7894BC
:1011100084B5826084BD84B5816084BD85B58260FC
:1011200085BD85B5816085BD80916E0081608093AD
:101130006E00109281008091810082608093810016
:101140008091810081608093810080918000816026
:10115000809380008091B10084608093B100809181
:10116000B00081608093B00080917A0084608093A9
:101170007A0080917A00826080937A0080917A0070
:10118000816080937A0080917A00806880937A00F1
:101190001092C100E0916A02F0916B0282E08083BC
:1011A000E0916602F09167021082E0916802F0918E
:1011B00069028FEC808310927202E0916E02F091CE
:1011C0006F0286E08083E0916C02F0916D02808175
:1011D00080618083E0916C02F0916D028081886073
:1011E0008083E0916C02F0916D0280818068808341
:1011F000E0916C02F0916D0280818F7D808384E0AC
:101200000E948D008DE00E948D0083E00E948D0081
:101210008CE00E948D00809136038C3008F050C025
:101220008BE00E948D0080913603282F30E0F90179
:10123000EE0FFF1FE20FF31FE950FD4F9081907CEE
:101240009B60908310923703109238032CE0622F3A
:101250000E943D0E829FB001112430E020E0AB01DE
:10126000420F531FFA01EE0FFF1FE40FF51FE95065
:10127000FD4F908196FD16C02F5F3F4F2C303105FA
:1012800071F781110FC01092800082E0809381007D
:101290001092850010928400B19A80916F00826054
:1012A00080936F00E09136038E2F90E0FC01EE0FEB
:1012B000FF1FE80FF91FE950FD4F80818064808394
:1012C00060E084E00E947A0160E08CE00E947A0194
:1012D00061E083E00E947A0161E08DE00E947A0182
:1012E00090E080E00E94AC00209122033091230323
:1012F000032E000C440B550B60E077E883E993E084
:101300000E94A30DCA01B9012FE030E040E050E097
:101310000E94A30D20931E0330931F0340932003CC
:101320005093210308E512E078E8E72EF12C2FB75F
:10133000F8948091560290915702A0915802B09172
:1013400059022FBF40914D0250914E0260914F02C1
:10135000709150025C016D01A41AB50AC60AD70A41
:10136000B601A501483E53406105710508F4BCC0B3
:1013700080934D0290934E02A0934F02B09350027F
:10138000809100016CE171E0811102C066E271E0C0
:10139000CE0143960E94190684E00E94510163E445
:1013A00072E0892B11F46EE271E0CE010D960E947D
:1013B00019066AE371E0CE0101960E941906BE018A
:1013C000635F7F4FCE0101960E94AF0566E571E035
:1013D0000E949905BE016D5E7F4F0E94AF056AE5D0
:1013E00071E00E9499050E94CC04CE0101960E94F2
:1013F0002805809138034801881A910887FD939445
:10140000880C991C880C991C092C000CAA08BB0894
:10141000809137032701481A510887FD5394440CE3
:10142000551C440C551C052C000C6608770880914F
:1014300036038F3F09F478C090E0FC01EE0FFF1FE8
:10144000E80FF91FE950FD4F8181928133E0880F49
:10145000991F3A95E1F7B0E0A0E044E0B595A79573
:10146000979587954A95D1F702969C012F5F3F4F3C
:10147000032E000C440B550B241935094609570956
:10148000A4EBB0E00E94C20DA50194012419350916
:10149000460957090E94A30DB901CE0101960E9489
:1014A000ED056EE571E0CE0107960E941906BE01BA
:1014B0006F5F7F4FCE0107960E94AF056AE571E02E
:1014C0000E9499050E94CC04CE0107960E9428052F
:1014D000CE0101960E942805CE010D960E94280596
:1014E000CE0143960E9428058AE592E00E941504E9
:1014F000892B09F41DC26BE171E0CE0101960E94B7
:1015000019060E94C70397FD12C08A30910579F031
:101510008F83188641E050E0BE01695F7F4FCE01A6
:1015200001960E946D05EDCF90E080E09ECF809106
:10153000390390913A03009709F409C269817A81CD
:101540006115710509F401C240913B0350913C03C0
:101550002D813E814217530708F4F7C10E946B109A
:101560008D819E8190933E0380933D031E821D8258
:10157000CE0101960E94280564E871E0CE01019633
:101580000E94190670E060E0CE0101960E94F60408
:101590005C01CE0101960E94280588E0A80EB11CCE
:1015A00064E571E0CE0101960E941906B501CE01F5
:1015B00001960E94F6044C01CE0101960E94280576
:1015C000A401B501CE014F960E942A066DE871E094
:1015D000CE0101960E94190670E060E0CE010196EE
:1015E0000E94F6045C01CE0101960E9428052AE0C3
:1015F000A20EB11C64E571E0CE0101960E941906AD
:10160000B501CE0101960E94F6044C01CE0101966F
:101610000E942805A401B501CE0149960E942A0620
:1016200068E971E0CE014F960E943005882309F4E5
:1016300056C06EE971E0CE0149960E9430058823BC
:1016400009F44DC067EA71E0CE0101960E941906C7
:1016500070E060E0CE0101960E94F6045C01CE01CC
:1016600001960E94280589E0A80EB11C64E571E08E
:10167000CE0101960E941906B501CE0101960E9485
:10168000F6044C01CE0101960E942805A401B50183
:10169000CE0107960E942A061A8219821C821B829A
:1016A0001E821D826F8178856115710531F04B8531
:1016B0005C85CE0101960E94C20589819A810097BE
:1016C00009F45CC10E942A0DCB010E94AC00CE013E
:1016D00001960E942805CE0107960E94280561EB1D
:1016E00071E0CE014F960E9430058823C9F164EB6A
:1016F00071E0CE0149960E9430058823B1F084E064
:101700000E945101892B09F43DC160E084E00E94F0
:101710007A0160E08CE00E947A0161E083E00E943F
:101720007A0161E08DE00E947A016CEB71E0CE01FC
:1017300049960E943005882399F080910001882302
:1017400009F42EC183EC91E00E94DF0460E084E0A4
:101750000E947A0160E08CE00E947A011092000100
:1017600064EE71E0CE014F960E943005882309F4A3
:10177000D1C068EE71E0CE0101960E94190670E0BA
:1017800060E0CE0101960E94F6045C01CE01019654
:101790000E94280528E0A20EB11C61EF71E0CE0185
:1017A00001960E941906B501CE0101960E94F60429
:1017B0004C01CE0101960E942805A401B501CE017D
:1017C00043960E942A068B899C890E940C0D5C011D
:1017D00063EF71E0CE0101960E94190670E060E0AF
:1017E000CE0101960E94F6040D964C01CE010196A1
:1017F0000E94280564E571E0CE0101960E94190659
:10180000B401CE0101960E94F6043C01CE0101967E
:101810000E942805A301B401CE010D960E942A065C
:1018200089E393E00E94CC04B401CE0107960E94A4
:10183000ED0561E072E0CE0101960E941906BE013D
:10184000695F7F4FCE0101960E94AF050E94CC04D4
:10185000CE0101960E942805CE0107960E94280518
:10186000B301CE0107960E94ED0561E072E0CE0162
:1018700001960E941906BE01695F7F4FCE01019655
:101880000E94AF050E94CC04CE0101960E9428055B
:10189000CE0107960E94280568E072E0CE0101960D
:1018A0000E941906BE016D5E7F4FCE0101960E9417
:1018B000AF050E94CC04CE0101960E94280560E18C
:1018C00072E0CE0101960E941906BE01635F7F4F50
:1018D000CE0101960E94AF050E94CC04CE01019674
:1018E0000E9428056CE172E0CE010D960E94300541
:1018F000882309F46DC086E292E00E94DF04C501EE
:101900000E94B802CE010D960E942805CE01439692
:101910000E9428056BE171E089E393E00E94E305F2
:10192000CE0149960E942805CE014F960E942805B7
:1019300080E090E0892B09F4FACC0E9421048823EE
:1019400009F4F0CC0E940000EDCC0E94130F8981B5
:101950009A8190933A03809339038B819C81909371
:101960003C0380933B038D819E8190933E03809343
:101970003D031A8219821C821B82F8CD60E070E060
:10198000CB01A2CE61E084E00E947A0161E08CE0AC
:101990000E947A0160E083E00E947A0160E0C2CE9A
:1019A00083ED91E00E94DF0461E084E00E947A010F
:1019B00061E08CE00E947A0160E083E00E947A019D
:1019C00060E08DE00E947A0181E080930001C8CE42
:1019D000B194A194B108B501CE0107960E94ED051E
:1019E00067E372E0CE0101960E941906BE01695FAD
:1019F0007F4FCE0101960E94AF050E94CC04CE011C
:101A000001960E942805CE0107960E94280577CFEF
:101A100089E393E00C942805FC0188279927E89432
:101A200021912032E9F3293010F02E30C8F32B3207
:101A300041F02D3239F4689404C00E94710D820F78
:101A4000911D219120532A30C0F31EF49095819569
:101A50009F4F08951F93FC0199278827BC01E894A4
:101A600011911032E9F3193010F01E30C8F31B3217
:101A700051F01D3249F4689406C00E945C0D610F5C
:101A8000711D811D911D119110531A30B0F33EF458
:101A900090958095709561957F4F8F4F9F4F1F91C7
:101AA0000895BB274A3031F4992322F4BDE2909582
:101AB00081959F4F0C947A0D592F482F372F262F41
:101AC000660F771F881F991F660F771F881F991F42
:101AD000620F731F841F951F660F771F881F991F42
:101AE00008957AE0979F902D879F802D910D112466
:101AF0000895BB27FB015527AA27880F991FAA1F06
:101B0000A41710F0A41B83955051B9F7A05DAA3318
:101B100008F0A95DA193009779F7B111B1931192E3
:101B2000CB010C94930DDC01FC01672F719177239D
:101B3000E1F7329704C07C916D9370836291AE1788
:101B4000BF07C8F30895052E97FB1EF400940E946A
:101B5000BA0D57FD07D00E940C0E07FC03D04EF4BF
:101B60000C94BA0D50954095309521953F4F4F4FAD
:101B70005F4F089590958095709561957F4F8F4F39
:101B80009F4F08950E942E0EA59F900DB49F900D1B
:101B9000A49F800D911D11240895B7FF0C94C20DD0
:101BA0000E94C20D821B930B08952F923F924F9279
:101BB0005F926F927F928F929F92AF92BF92CF92DD
:101BC000DF92EF92FF920F931F93CF93DF93CDB7E6
:101BD000DEB7CA1BDB0B0FB6F894DEBF0FBECDBF5E
:101BE00009942A88398848885F846E847D848C842F
:101BF0009B84AA84B984C884DF80EE80FD800C8138
:101C00001B81AA81B981CE0FD11D0FB6F894DEBF1A
:101C10000FBECDBFED010895A1E21A2EAA1BBB1B7A
:101C2000FD010DC0AA1FBB1FEE1FFF1FA217B307A8
:101C3000E407F50720F0A21BB30BE40BF50B661FBE
:101C4000771F881F991F1A9469F760957095809582
:101C500090959B01AC01BD01CF010895A29FB001F9
:101C6000B39FC001A39F700D811D1124911DB29FD0
:101C7000700D811D1124911D0895991B79E004C0F8
:101C8000991F961708F0961B881F7A95C9F78095BB
:101C9000089597FB072E16F4009407D077FD09D01E
:101CA0000E94630E07FC05D03EF4909581959F4FEE
:101CB0000895709561957F4F0895EE0FFF1F059071
:101CC000F491E02D0994AA1BBB1B51E107C0AA1F88
:101CD000BB1FA617B70710F0A61BB70B881F991FCD
:101CE0005A95A9F780959095BC01CD0108950F9361
:101CF0001F93CF93DF938230910510F482E090E040
:101D0000E0914103F091420330E020E0B0E0A0E038
:101D1000309799F42115310509F44AC0281B390B75
:101D200024303105D8F58A819B816115710589F1CF
:101D3000FB0193838283FE0111C0408151810281A6
:101D4000138148175907E0F04817590799F410977D
:101D500061F012960C93129713961C933296CF0152
:101D6000DF91CF911F910F9108950093410310933C
:101D70004203F4CF2115310551F04217530738F0D3
:101D8000A901DB019A01BD01DF01F801C1CFEF011B
:101D9000F9CF9093420380934103CDCFFE01E20F30
:101DA000F31F819391932250310939832883D7CF30
:101DB00020913F0330914003232B41F420910301F4
:101DC000309104013093400320933F03209101019F
:101DD000309102012115310541F42DB73EB74091F4
:101DE000050150910601241B350BE0913F03F09152
:101DF0004003E217F307A0F42E1B3F0B2817390707
:101E000078F0AC014E5F5F4F2417350748F04E0F56
:101E10005F1F5093400340933F03819391939FCF63
:101E2000F0E0E0E09CCFCF93DF930097E9F0FC0176
:101E3000329713821282A0914103B0914203ED01C7
:101E400030E020E01097A1F420813181820F931FB0
:101E500020913F03309140032817390709F061C0F2
:101E6000F0934003E0933F03DF91CF910895EA019F
:101E7000CE17DF07E8F54A815B819E0141155105C8
:101E8000B1F7E901FB83EA8349915991C40FD51F4A
:101E9000EC17FD0761F4808191810296840F951FF4
:101EA000E90199838883828193819B838A83F0E00F
:101EB000E0E012968D919C9113970097B9F52D91C2
:101EC0003C911197CD010296820F931F20913F0301
:101ED000309140032817390739F6309751F51092A1
:101EE000420310924103B0934003A0933F03BCCF41
:101EF000D383C28340815181840F951FC817D907AE
:101F000061F44E5F5F4F88819981480F591F51835B
:101F100040838A819B81938382832115310509F057
:101F2000B0CFF0934203E09341039ECFFD01DC016B
:101F3000C0CF13821282D7CFB0E0A0E0E2EAFFE088
:101F40000C94D70D8C01009751F4CB010E94770EB1
:101F50008C01C801CDB7DEB7E0E10C94F30DFC01B4
:101F6000E60FF71F9C0122503109E217F30708F42E
:101F70009DC0D901CD91DC911197C617D70798F074
:101F8000C530D10530F3CE0104978617970708F3C3
:101F9000C61BD70B2297C193D1936D937C93CF012E
:101FA0000E94130FD6CF5B01AC1ABD0A4C018C0EF8
:101FB0009D1EA0914103B0914203512C412CF12C64
:101FC000E12C109731F580913F03909140038815E3
:101FD000990509F05CC04616570608F058C0809174
:101FE000010190910201009741F48DB79EB7409195
:101FF000050150910601841B950BE817F90708F0BD
:1020000055C0F0934003E0933F03F901718360836F
:10201000A0CF8D919C91119712966C901297139668
:102020007C901397A815B90559F56C0142E0C40ED0
:10203000D11CCA14DB0420F1AC014A195B09DA0196
:102040001296159780F06282738251834083D90182
:102050006D937C93E114F10471F0D7011396FC9316
:10206000EE93129776CF22968C0F9D1FF9019183E4
:102070008083F301EFCFF0934203E093410369CFF4
:102080004816590608F42C017D01D3019ACFCB01E3
:102090000E94770E7C01009749F0AE01B8010E94C2
:1020A0005910C8010E94130F870153CF10E000E0C0
:1020B00050CFFB01DC0102C001900D924150504015
:1020C000D8F70895FB01DC018D9101908019011072
:1020D000D9F3990B0895FB01DC0101900D920020CA
:1020E000E1F70895FB0151915523A9F0BF01DC01EF
:1020F0004D9145174111E1F759F4CD0101900020B0
:1021000049F04D9140154111C9F3FB014111EFCF49
:1021100081E090E00197089510E0C2E6D0E004C0AD
:10212000FE010E945D0E2196C336D107C9F7F894CF
:10213000FFCF010000430380000000000057047738
:1021400003A403A4041504B30307040D0A00656E79
:1021500063656E6469646F006170616761646F00DC
:10216000616E7469686F726172696F007B2022749E
:10217000797065223A20224443222C202273746114
:10218000747573223A202200207C200022207D00DA
:102190007B202274797065223A2022536572766F13
:1021A000222C2022737461747573223A2022616E8E
:1021B000676C653A20002274797065223A22002209
:1021C000616374696F6E223A2200536572766F0004
:1021D000736574416E676C650022616E676C652281
:1021E0003A22004443007265766572736500746F2D
:1021F00067676C65007061736120706F7220617039
:1022000061676172007061736120706F722070721B
:10221000656E64657200506150002273746570735E
:10222000223A002C0022646972656374696F6E2221
:102230003A2200737465703A20007061736F733ACC
:102240002000646972656363696F6E3A2000636C95
:102250006F636B7769736500656E74726120656E7C
:1022600020686F726172696F00656E7472612065BB
:0E2270006E204E4F20686F726172696F000021
:107E0000112484B714BE81FFF0D085E080938100F7
:107E100082E08093C00088E18093C10086E0809377
:107E2000C20080E18093C4008EE0C9D0259A86E02C
:107E300020E33CEF91E0309385002093840096BBD3
:107E4000B09BFECF1D9AA8958150A9F7CC24DD24C4
:107E500088248394B5E0AB2EA1E19A2EF3E0BF2EE7
:107E6000A2D0813461F49FD0082FAFD0023811F036
:107E7000013811F484E001C083E08DD089C08234E0
:107E800011F484E103C0853419F485E0A6D080C0E4
:107E9000853579F488D0E82EFF2485D0082F10E0AE
:107EA000102F00270E291F29000F111F8ED06801E7
:107EB0006FC0863521F484E090D080E0DECF843638
:107EC00009F040C070D06FD0082F6DD080E0C81688
:107ED00080E7D80618F4F601B7BEE895C0E0D1E017
:107EE00062D089930C17E1F7F0E0CF16F0E7DF06D8
:107EF00018F0F601B7BEE89568D007B600FCFDCFD4
:107F0000A601A0E0B1E02C9130E011968C91119780
:107F100090E0982F8827822B932B1296FA010C0160
:107F200087BEE89511244E5F5F4FF1E0A038BF0790
:107F300051F7F601A7BEE89507B600FCFDCF97BE46
:107F4000E89526C08437B1F42ED02DD0F82E2BD052
:107F50003CD0F601EF2C8F010F5F1F4F84911BD097
:107F6000EA94F801C1F70894C11CD11CFA94CF0C13
:107F7000D11C0EC0853739F428D08EE10CD085E9AC
:107F80000AD08FE07ACF813511F488E018D01DD067
:107F900080E101D065CF982F8091C00085FFFCCF94
:107FA0009093C60008958091C00087FFFCCF809118
:107FB000C00084FD01C0A8958091C6000895E0E648
:107FC000F0E098E1908380830895EDDF803219F02E
:107FD00088E0F5DFFFCF84E1DECF1F93182FE3DFCA
:107FE0001150E9F7F2DF1F91089580E0E8DFEE27F6
:047FF000FF270994CA
:027FFE00040479
:00000001FF
